:100000000C942A000C9447000C9447000C94470071
:100010000C9447000C9447000C9447000C94470044
:100020000C9447000C9447000C9447000C94470034
:100030000C9447000C9447000C9447000C94680201
:100040000C94F6020C9447000C9447000C94470063
:100050000C94470011241FBECFE5D8E0DEBFCDBF12
:1000600010E0A0E6B0E0ECE3F8E002C005900D92ED
:10007000A83CB107D9F720E0A8ECB0E001C01D9280
:10008000A53DB207E1F70E94AC030C941C040C944C
:100090000000813001F130F08230A9F1833009F4A1
:1000A0004AC0089541110BC081E090E001C0880F63
:1000B0006A95EAF780959AB389238ABB08954130FF
:1000C00009F045C021E030E001C0220F6A95EAF74F
:1000D0008AB3822BF2CF41110BC081E090E001C0C6
:1000E000880F6A95EAF7809597B3892387BB0895AF
:1000F000413069F521E030E001C0220F6A95EAF74E
:1001000087B3822BF3CF41110BC081E090E001C097
:10011000880F6A95EAF7809594B3892384BB089584
:100120004130A9F421E030E001C0220F6A95EAF7DE
:1001300084B3822BF3CF41110BC081E090E001C06A
:10014000880F6A95EAF7809591B3892381BB08955A
:100150004130E9F721E030E001C0220F6A95EAF76B
:1001600081B3822BF3CF813001F130F08230A9F1DD
:10017000833009F44AC0089541110BC081E090E03A
:1001800001C0880F6A95EAF780959BB389238BBBE2
:100190000895413009F045C021E030E001C0220F50
:1001A0006A95EAF78BB3822BF2CF41110BC081E045
:1001B00090E001C0880F6A95EAF7809598B389238B
:1001C00088BB0895413069F521E030E001C0220F7D
:1001D0006A95EAF788B3822BF3CF41110BC081E017
:1001E00090E001C0880F6A95EAF7809595B389235E
:1001F00085BB08954130A9F421E030E001C0220F11
:100200006A95EAF785B3822BF3CF41110BC081E0E9
:1002100090E001C0880F6A95EAF7809592B3892330
:1002200082BB08954130E9F721E030E001C0220FA0
:100230006A95EAF782B3822BF3CF813081F028F000
:100240008230B9F08330F9F0089521E030E001C048
:10025000220F6A95EAF78BB382278BBB089521E0C2
:1002600030E001C0220F6A95EAF788B3822788BB85
:10027000089521E030E001C0220F6A95EAF785B3C6
:10028000822785BB089521E030E001C0220F6A95E6
:10029000EAF782B3822782BB08958130D1F030F033
:1002A0008230C9F08330C9F0892F089589B390E076
:1002B00021E030E0062E02C0220F331F0A94E2F73D
:1002C0008223932302C0959587956A95E2F7982F2C
:1002D000EBCF86B3ECCF83B3EACF80B3E8CF8130E6
:1002E00041F028F0823039F0833039F008956ABB4C
:1002F000089567BB089564BB089561BB089581307C
:1003000041F028F0823039F0833039F008956BBB2A
:10031000089568BB089565BB089562BB0895813058
:1003200051F028F0823059F0833069F008958BB392
:1003300080958BBB089588B3809588BB089585B35D
:10034000809585BB089582B3809582BB08958130E6
:1003500049F030F0823041F0833041F0892F089528
:1003600099B3FCCF96B3FACF93B3F8CF90B3F6CF4F
:1003700041E00C94490041E00C94B30040E00C943F
:10038000B3000C941D01089580E00E94C1020E94F8
:10039000EB029C01A8E8B3E10E940D0426EF37E2CE
:1003A00040E050E00E94E503822F0895089581E027
:1003B0000E94C1020C94EB029FBB8EBB6DBBE29A04
:1003C000E19AE199FECF08959FBB8EBBE09A8DB371
:1003D0000895CF93C42F9B01AC0184E0220F331FFB
:1003E000441F551F8A95D1F760E072E18AE790E0DB
:1003F0000E94E5032150310929B980B58F7780BD6E
:1004000030BD549A539A80B5806880BDC630A1F043
:1004100020F4C53049F0CF910895C73081F0C8303D
:10042000D1F780B582600DC080B58D7F80BD80B56D
:100430008B7F80BD5298EFCF80B58260F7CF80B5BB
:100440008D7F80BD80B58460F4CF5D9BFECF8CB97D
:100450005E9BFECF08958091CE009091CF00E091F9
:10046000C90021E02E0F2093C900E80FF92FF11DDC
:1004700080818CB9E091C9008091CE009091CF002D
:10048000E80FF92FF11D8081811106C056985E9802
:100490001092C8001092C90008952091C80021113F
:1004A0000FC021E02093C8002FB720682FBF569AB5
:1004B0009093CF008093CE000E942B0281E008959C
:1004C00080E008955F9B02C08CB1089580E008959C
:1004D0001F920F920FB60F9211242F933F934F93B9
:1004E0005F936F937F938F939F93AF93BF93EF939C
:1004F000FF930E942B02FF91EF91BF91AF919F91CB
:100500008F917F916F915F914F913F912F910F90BC
:100510000FBE0F901F9018956130C1F0A0F06230AF
:10052000B9F0803129F1B8F48430E9F08830F1F085
:10053000823019F4309A319832988FB780688FBF23
:10054000339A379A08953E983F98EBCF3E9AFCCF66
:100550003E9A3F9AE6CF803479F0803881F080323D
:1005600061F7309A06C03098319AE6CF309AFCCFC6
:1005700030983198329AE1CF3098319AFBCF309A47
:10058000FCCF883088F4E82FF0E0E753FD4F0C945F
:100590000704D102D602D802DB02DD02E102E30247
:1005A000E602389839983A98369A0895389AFACFE8
:1005B0003898399AF8CF389AFCCF389839983A9ABF
:1005C000F3CF389AFBCF3898399AF9CF389AFCCFC5
:1005D00084B195B10895349BFECF349A84B195B11E
:1005E00008959093D1008093D00008951F920F92A8
:1005F0000FB60F9211242F933F934F935F936F93F6
:100600007F938F939F93AF93BF93EF93FF93E0916B
:10061000D000F091D1000995FF91EF91BF91AF917A
:100620009F918F917F916F915F914F913F912F910A
:100630000F900FBE0F901F901895813589F082356D
:10064000E1F0803531F58091CC00813011F160E529
:1006500090E080E00E94DC0181E08093CC0008956E
:100660008091CA008130A9F061E581E090E00E94AC
:10067000DC0181E08093CA0008958091CB00813035
:1006800041F062E582E090E00E94DC0181E080932D
:10069000CB0008950F931F93CF938C01C62FCA01EF
:1006A000B90148E00E94E9011093D3000093D20001
:1006B000C093D400CF911F910F9108951F93CF93B2
:1006C000DF9381E090E00E94E401182F82E090E047
:1006D0000E94E401D82F90E080E00E94E401C82F3E
:1006E000113531F484E690E00E944D028823D1F365
:1006F000D23531F484E890E00E944D028823D1F392
:10070000C03531F483EA90E00E944D028823D1F392
:10071000DF91CF911F9108950E9462028823D9F042
:100720009091CD00E091D200F091D300E90FF11D3E
:10073000208128130DC09F5F9093CD009091CD0034
:100740008091D400981307C01092CD000C945E03E2
:100750001092CD00F3CF089567E083E00E94B801C6
:1007600061E080E40E948C020E94C3010E94D601D5
:1007700020E835E240E050E063E080E690E00E944F
:100780004A030E94C401C82F0E94D701843823E085
:10079000920778F081E50E941D03C93218F080E5C8
:1007A0000E941D0367E083E00E94BB010E948C034E
:1007B000E8CF8536910510F482E5EDCFC93278F7A0
:1007C00067E083E00E94BE01F1CFA1E21A2EAA1BCE
:1007D000BB1BFD010DC0AA1FBB1FEE1FFF1FA217F1
:1007E000B307E407F50720F0A21BB30BE40BF50BEE
:1007F000661F771F881F991F1A9469F76095709577
:10080000809590959B01AC01BD01CF010895EE0F3D
:10081000FF1F0590F491E02D0994A29FB001B39FB2
:10082000C001A39F700D811D1124911DB29F700DF9
:0C083000811D1124911D0895F894FFCF44
:10083C00313233004572726F7220636F6465203001
:10084C007835313A20486967682043757272656E55
:10085C00740D0A004572726F7220636F64652030EC
:10086C007835323A204C6F772043757272656E740E
:10087C000D0A004572726F7220636F6465203078C8
:10088C0035303A20486967682054656D706572612F
:08089C00747572650D0A00007D
:00000001FF
