:100000000C942A000C94D00A0C94F70A0C941E0B42
:100010000C9447000C941C080C9447000C94470067
:100020000C9447000C9447000C9447000C948F09E3
:100030000C9447000C9447000C9447000C94470024
:100040000C945B0D0C9447000C9447000C944700F3
:100050000C94470011241FBECFE5D8E0DEBFCDBF12
:1000600011E0A8E6B1E001C01D92AC38B107E1F79C
:1000700011E0A0E6B0E0E6EBFCE102C005900D92D5
:10008000A836B107D9F70E94BE0D0C94590E0C94F6
:100090000000EF92FF920F931F937B018C0120E0F1
:1000A00030E040E05FE40E94550488238CF0C801F2
:1000B000B70120E030E040E05FE40E94C1010E940F
:1000C000B5049B01AC01205030404040504806C070
:1000D000C801B7010E94B5049B01AC01B901CA0176
:1000E0001F910F91FF90EF900895A0E0B0E0EBE733
:1000F000F0E00C94220EDC012B01FA019C9192306D
:1001000008F439C1EB018881823008F433C194309E
:1001100069F4843009F02FC111969C91119789815F
:10012000981709F428C1A0E6B0E025C1843009F48D
:1001300021C18230A9F4923009F01DC19A01AD01AC
:1001400088E0EA010990AE01E90109929E0181501F
:10015000C1F7E201898111969C918923818308C1AD
:10016000923009F407C112962D903C901397EB0141
:100170008A819B811496AD90BD90CD90DC901797AD
:10018000EC80FD800E811F819101281B390BB90184
:1001900037FF04C066277727621B730B6032710537
:1001A0000CF061C0121613066CF537014801062EDB
:1001B00004C096948794779467940A94D2F721E0C8
:1001C00030E040E050E004C0220F331F441F551FB1
:1001D0006A95D2F721503040404050402E213F21B7
:1001E00040235123211531054105510521F021E01E
:1001F00030E040E050E079018A01E628F72808293C
:1002000019293CC0232BD1F1260E371E350146019A
:10021000062E04C096948794779467940A94D2F734
:1002200021E030E040E050E004C0220F331F441FC3
:10023000551F6A95D2F721503040404050402A2146
:100240003B214C215D21211531054105510521F04E
:1002500021E030E040E050E059016A01A628B728CB
:10026000C828D9280BC0821593052CF01C01AA249C
:10027000BB24650103C0EE24FF24870111969C91E5
:10028000D20111968C91981709F445C0992339F041
:10029000A80197012A193B094C095D0906C0A6016E
:1002A00095012E193F09400B510B57FD08C01182D3
:1002B0003382228224833583468357831DC081E0A5
:1002C00081833382228288279927DC01821B930B4A
:1002D000A40BB50B84839583A683B7830DC0220F2F
:1002E000331F441F551F24833583468357838281E0
:1002F000938101979383828324813581468157813D
:10030000DA01C9010197A109B1098F5F9F4FAF4F72
:10031000BF4328F30BC0918333822282EA0CFB1C7B
:100320000C1D1D1DE482F5820683178383E0808304
:10033000248135814681578157FF1AC0C901AA27F8
:1003400097FDA095BA2F81709070A070B0705695EF
:10035000479537952795822B932BA42BB52B848318
:100360009583A683B7838281938101969383828349
:10037000DF0101C0D201CD01CDB7DEB7E2E10C94BF
:100380003E0EA0E2B0E0E7ECF1E00C942E0E6983A3
:100390007A838B839C832D833E834F835887E9E048
:1003A000EE2EF12CEC0EFD1ECE010196B7010E943F
:1003B000A6068E010F5E1F4FCE010596B8010E9462
:1003C000A6068A8991E089278A8BC701B801AE0108
:1003D000475E5F4F0E9475000E94D105A096E6E03F
:1003E0000C944A0EA0E2B0E0E8EFF1E00C942E0E7F
:1003F00069837A838B839C832D833E834F835887C5
:10040000F9E0EF2EF12CEC0EFD1ECE010196B701A6
:100410000E94A6068E010F5E1F4FCE010596B80101
:100420000E94A606C701B801AE01475E5F4F0E9459
:1004300075000E94D105A096E6E00C944A0EA0E259
:10044000B0E0E5E2F2E00C94220E69837A838B83BC
:100450009C832D833E834F835887CE010196BE0136
:10046000675F7F4F0E94A606CE010596BE016F5EB4
:100470007F4F0E94A6069985923088F08989823044
:10048000C8F0943019F4823051F404C0843029F457
:10049000923081F480E690E0C6C0923049F420E0CA
:1004A0009A858A89981321E02A87CE010996BBC0D4
:1004B000823049F420E09A858A89981321E02A8BBA
:1004C000CE014196B0C02D843E844F8458886D88FB
:1004D0007E888F88988CEE24FF248701AA24BB2471
:1004E000650140E050E060E070E0E0E0F0E0C10174
:1004F00081709070892BE9F0E60CF71C081D191D1E
:100500009A01AB012A0D3B1D4C1D5D1D80E090E062
:10051000A0E0B0E0E614F7040805190520F481E036
:1005200090E0A0E0B0E0BA01A901480F591F6A1F8E
:100530007B1FAA0CBB1CCC1CDD1C97FE08C081E0F5
:1005400090E0A0E0B0E0A82AB92ACA2ADB2A3196B6
:10055000E032F10549F0660C771C881C991C569412
:10056000479437942794C3CFFA85EA892B893C892D
:100570008B859C85280F391F2E5F3F4F17C0CA01FE
:1005800081709070892B61F016950795F794E79428
:1005900080E090E0A0E0B0E8E82AF92A0A2B1B2BC3
:1005A00076956795579547952F5F3F4F77FDE7CF36
:1005B0000CC0440F551F661F771F17FD4160EE0CDE
:1005C000FF1C001F111F21503040403090E05907A0
:1005D00090E0690790E4790760F32B8F3C8FDB0193
:1005E000CA018F779070A070B07080349105A1051A
:1005F000B10561F447FD0AC0E114F10401051105DC
:1006000029F0405C5F4F6F4F7F4F40781A8EFE1786
:1006100011F081E08A8F4D8F5E8F6F8F78A383E01A
:10062000898FCE0149960E94D105A096E2E10C94F3
:100630003E0EA8E1B0E0EFE1F3E00C942A0E6983EE
:100640007A838B839C832D833E834F835887B9E0C5
:10065000EB2EF12CEC0EFD1ECE010196B7010E948F
:10066000A6068E010F5E1F4FCE010596B8010E94AF
:10067000A6062985223008F47EC03989323010F46C
:10068000B8017CC08A859A8989278A87243011F02D
:10069000223031F4231709F06EC060E670E06EC0BE
:1006A000343039F41D861E861F86188A1C861B86E8
:1006B00004C0323021F484E08987B7015FC02B8504
:1006C0003C858B899C89281B390B3C872B87ED84C3
:1006D000FE840F851889AD88BE88CF88D88CEA142F
:1006E000FB040C051D0540F4EE0CFF1C001F111F40
:1006F000215030403C872B8720E030E040E050E044
:1007000080E090E0A0E0B0E460E070E0EA14FB0478
:100710000C051D0540F0282B392B4A2B5B2BEA18C2
:10072000FB080C091D09B695A79597958795EE0CC2
:10073000FF1C001F111F6F5F7F4F6F31710531F775
:10074000DA01C9018F779070A070B0708034910584
:10075000A105B10561F427FD0AC0E114F10401050A
:10076000110529F0205C3F4F4F4F5F4F20782D87B8
:100770003E874F87588BBE01675F7F4FCB010E943A
:10078000D1056896EAE00C94460EA8E1B0E0EBECE7
:10079000F3E00C942E0E69837A838B839C832D83E4
:1007A0003E834F83588789E0E82EF12CEC0EFD1E26
:1007B000CE010196B7010E94A6068E010F5E1F4F63
:1007C000CE010596B8010E94A6068985823040F0C8
:1007D0008989823028F0C701B8010E941E0701C034
:1007E00081E06896E6E00C944A0EA8E1B0E0EBEFF9
:1007F000F3E00C942E0E69837A838B839C832D8384
:100800003E834F83588789E0E82EF12CEC0EFD1EC5
:10081000CE010196B7010E94A6068E010F5E1F4F02
:10082000CE010596B8010E94A6068985823040F067
:100830008989823028F0C701B8010E941E0701C0D3
:1008400081E06896E6E00C944A0EA8E1B0E0EBE2A5
:10085000F4E00C942E0E69837A838B839C832D8322
:100860003E834F83588789E0E82EF12CEC0EFD1E65
:10087000CE010196B7010E94A6068E010F5E1F4FA2
:10088000CE010596B8010E94A6068985823040F007
:100890008989823028F0C701B8010E941E0701C073
:1008A0008FEF6896E6E00C944A0EA8E1B0E0EBE525
:1008B000F4E00C942E0E69837A838B839C832D83C2
:1008C0003E834F83588789E0E82EF12CEC0EFD1E05
:1008D000CE010196B7010E94A6068E010F5E1F4F42
:1008E000CE010596B8010E94A6068985823040F0A7
:1008F0008989823028F0C701B8010E941E0701C013
:100900008FEF6896E6E00C944A0EA8E1B0E0EBE8C1
:10091000F4E00C942E0E69837A838B839C832D8361
:100920003E834F83588789E0E82EF12CEC0EFD1EA4
:10093000CE010196B7010E94A6068E010F5E1F4FE1
:10094000CE010596B8010E94A6068985823040F046
:100950008989823028F0C701B8010E941E0701C0B2
:1009600081E06896E6E00C944A0EACE0B0E0EBEB78
:10097000F4E00C94320E69837A838B839C83CE01DE
:100980000196BE016B5F7F4F0E94A6068D8182306B
:1009900061F1823050F1843021F48E81882351F14D
:1009A0002EC02F81388537FD20C06E812F31310553
:1009B0001CF06623F9F023C08EE190E0821B930BBC
:1009C00029853A854B855C8504C0569547953795B2
:1009D00027958A95D2F76623B1F0509540953095CA
:1009E00021953F4F4F4F5F4F0EC020E030E040E079
:1009F00050E009C02FEF3FEF4FEF5FE704C020E06A
:100A000030E040E050E8B901CA012C96E2E00C94D5
:100A10004E0EA8E0B0E0EFE0F5E00C942A0E7B016A
:100A20008C01611571058105910519F482E08983B6
:100A300060C083E089838EE1C82ED12CDC82CB821A
:100A4000ED82FE820F831887C801B7010E948205DC
:100A5000FC013197F7FF3BC0222733272E1B3F0BAA
:100A600057016801022E04C0D694C794B794A79486
:100A70000A94D2F740E050E060E070E081E090E05E
:100A8000A0E0B0E004C0880F991FAA1FBB1F2A95E1
:100A9000D2F70197A109B1098E219F21A023B1238B
:100AA0000097A105B10521F041E050E060E070E061
:100AB0004A295B296C297D294D835E836F83788762
:100AC0008EE190E08E1B9F0B9C838B8312C030972E
:100AD00081F00E2E04C0EE0CFF1C001F111F0A94A3
:100AE000D2F7ED82FE820F831887CE1ADF0ADC82EE
:100AF000CB821A82CE0101960E94D1052896EAE0A7
:100B00000C94460EEF92FF920F931F937B018C0182
:100B100080E0E81680E0F80681E0080780E018072A
:100B200088F48FEFE816F1040105110531F028F083
:100B300088E090E0A0E0B0E017C080E090E0A0E0A6
:100B4000B0E012C080E0E81680E0F80680E0080718
:100B500081E0180728F088E190E0A0E0B0E004C050
:100B600080E190E0A0E0B0E020E230E040E050E042
:100B7000281B390B4A0B5B0B04C016950795F7949D
:100B8000E7948A95D2F7F701E859FF4F8081281B37
:100B9000310941095109C9011F910F91FF90EF904F
:100BA0000895DF92EF92FF920F931F93FC01E48070
:100BB000F58006811781D1808081823048F480E001
:100BC00090E0A0E1B0E0E82AF92A0A2B1B2BA5C08F
:100BD000843009F49FC0823021F4EE24FF24870181
:100BE00005C0E114F1040105110519F4E0E0F0E09D
:100BF00096C0628173819FEF623879070CF05BC009
:100C000022E83FEF261B370B2A3131052CF020E07C
:100C100030E040E050E02AC0B801A701022E04C035
:100C200076956795579547950A94D2F781E090E0BD
:100C3000A0E0B0E004C0880F991FAA1FBB1F2A952F
:100C4000D2F70197A109B1098E219F21A023B123D9
:100C50000097A105B10521F081E090E0A0E0B0E0AF
:100C60009A01AB01282B392B4A2B5B2BDA01C901E6
:100C70008F779070A070B07080349105A105B10598
:100C800039F427FF09C0205C3F4F4F4F5F4F04C02E
:100C9000215C3F4F4F4F5F4FE0E0F0E02030A0E09D
:100CA0003A07A0E04A07A0E45A0710F0E1E0F0E0BC
:100CB00079018A0127C06038710564F5FB01E158AC
:100CC000FF4FD801C7018F779070A070B07080344B
:100CD0009105A105B10539F4E7FE0DC080E490E06F
:100CE000A0E0B0E004C08FE390E0A0E0B0E0E80E48
:100CF000F91E0A1F1B1F17FF05C016950795F794CD
:100D0000E794319687E016950795F794E7948A95CE
:100D1000D1F705C0EE24FF248701EFEFF0E06E2F3E
:100D2000679566276795902F9F77D794DD24D79492
:100D30008E2F8695492F462B582F5D29B701CA0162
:100D40001F910F91FF90EF90DF900895FC01DB0160
:100D5000408151812281622F6F7770E0221F22270C
:100D6000221F9381892F880F822B282F30E0991F13
:100D70009927991F11969C93119721153105A9F573
:100D8000411551056105710511F482E037C082E813
:100D90009FEF13969C938E9312979A01AB0167E095
:100DA000220F331F441F551F6A95D1F783E08C93A0
:100DB0000DC0220F331F441F551F12968D919C9119
:100DC0001397019713969C938E931297203080E08F
:100DD000380780E0480780E4580758F314962D93AD
:100DE0003D934D935C93179708952F3F310579F408
:100DF000411551056105710519F484E08C9308953E
:100E000064FF03C081E08C9312C01C9210C02F5766
:100E1000304013963C932E93129783E08C9387E097
:100E2000440F551F661F771F8A95D1F7706414967B
:100E30004D935D936D937C93179708951F93DC01F9
:100E4000FB019C91923008F447C08081823008F405
:100E500043C0943051F411961C91843099F58181EE
:100E6000682F70E0611B71093FC0843021F092301F
:100E700031F48230B9F18181882389F12DC0119636
:100E80001C9111978230F1F081811817D9F41296D4
:100E90002D913C911397828193818217930794F04F
:100EA00028173907BCF014968D919D910D90BC9137
:100EB000A02D2481358146815781281739074A079B
:100EC0005B0718F4112341F00AC082179307A407A7
:100ED000B50740F4112319F061E070E005C06FEF31
:100EE0007FEF02C060E070E0CB011F910895CF92C8
:100EF000DF92EF92FF920F931F936A010E94090500
:100F00007B018C016091700170917101809172017F
:100F1000909173010E94090520E030E040E853E41D
:100F20000E941F0220E030E040E05EE30E941F02CA
:100F30009B01AC01C801B7010E9419037B018C0120
:100F4000D0927501C092740120E030E040E85FE388
:100F50000E94850488232CF481E090E0A0E0B0E0BA
:100F60004BC0C801B70120E030E040E85FE30E94D9
:100F7000C503882369F481E090E0A0E0B0E08093AD
:100F8000760190937701A0937801B09379014DC0D9
:100F9000C801B70120E030E040E85FE30E9425048B
:100FA00018160CF042C0C801B7010E9449006093B6
:100FB00076017093770180937801909379010E9474
:100FC00009059B01AC01C801B7010E94C1017B0169
:100FD0008C0120E030E040E050E00E94F5038823DF
:100FE00021F18091760190917701A0917801B091E3
:100FF00079010196A11DB11D80937601909377012F
:10100000A0937801B0937901C801B70120E030E0E6
:1010100040E853EC0E941F0220E030E040E853E437
:101020000E94F2010E94490064BD1F910F91FF9040
:10103000EF90DF90CF9008951F920F920FB60F920E
:1010400011242F933F934F935F936F937F938F93CD
:101050009F93AF93BF93EF93FF938091680190911B
:101060006901A0916A01B0916B010196A11DB11DAA
:101070008093680190936901A0936A01B0936B011A
:10108000209176013091770140917801509179015A
:1010900082179307A407B50769F4E0917401F091F2
:1010A00075010995109268011092690110926A0108
:1010B00010926B01FF91EF91BF91AF919F918F9132
:1010C0007F916F915F914F913F912F910F900FBE44
:1010D0000F901F9018959C01A0E0B0E080937001E4
:1010E00090937101A0937201B09373012034310584
:1010F00009F12134310538F42130310561F028300F
:10110000310551F50EC081E020303807C9F020507C
:10111000344011F518C085B5816085BD85B58D7FDA
:1011200005C085B58E7F85BD85B5826085BD85B5D9
:101130008B7F11C085B58E7F85BD85B58D7F08C03D
:1011400085B58E7F02C085B5816085BD85B582601D
:1011500085BD85B5846085BD6230B9F0633018F413
:10116000613089F505C06330B1F0643061F51AC0B3
:1011700085B58F7B85BD85B5877F85BD89B7806443
:1011800089BF8FB780688FBF089585B5806485BD9E
:1011900085B5877F05C085B58F7B85BD85B58860A2
:1011A00085BD089585B5806485BD85B5886085BD9C
:1011B00081E063E041E00E94450B85B58F7E85BDEF
:1011C00085B5806285BD08958F929F92AF92BF9240
:1011D000CF92DF92EF92FF920F931F936A010E94CA
:1011E00009057B018C0160918001709181018091E2
:1011F0008201909183010E94090520E030E040E8DF
:1012000053E40E941F0220E030E040E05EE30E94D1
:101210001F029B01AC01C801B7010E9419034B01D9
:101220005C01D0927B01C0927A0120E030E040E87E
:101230005FE30E94850488232CF481E090E0A0E025
:10124000B0E047C0C501B40120E030E040E85FE312
:101250000E94C503882369F481E090E0A0E0B0E03B
:1012600080937C0190937D01A0937E01B0937F01D8
:1012700049C0C501B40120E030E040E85FE30E94CE
:10128000250418160CF03EC0C501B4010E944900A7
:101290007B018C0160937C0170937D0180937E01C2
:1012A00090937F010E9409059B01AC01C501B40127
:1012B0000E94C1014B015C0120E030E040E050E0C1
:1012C0000E94F5038823F1F0D801C7010196A11D02
:1012D000B11D80937C0190937D01A0937E01B0931A
:1012E0007F01C501B40120E030E040E853EC0E94EA
:1012F0001F0220E030E040E853E40E94F2010E9427
:10130000490062BF1F910F91FF90EF90DF90CF9047
:10131000BF90AF909F908F9008958CBF08951F92BB
:101320000F920FB60F9211242F933F934F935F9319
:101330006F937F938F939F93AF93BF93EF93FF939D
:1013400080916C0190916D01A0916E01B0916F013F
:101350000196A11DB11D80936C0190936D01A09326
:101360006E01B0936F0120917C0130917D0140911D
:101370007E0150917F0182179307A407B50769F496
:10138000E0917A01F0917B01099510926C01109225
:101390006D0110926E0110926F01FF91EF91BF915C
:1013A000AF919F918F917F916F915F914F913F91FD
:1013B0002F910F900FBE0F901F9018959C01A0E0E9
:1013C000B0E08093800190938101A0938201B0935B
:1013D00083012034310509F12134310538F42130FD
:1013E000310561F02830310539F50EC081E020303B
:1013F0003807B1F020503440F9F415C083B781604C
:1014000083BF83B78D7F05C083B78E7F83BF83B7CC
:10141000826083BF83B78B7F0EC083B78160F6CFB6
:1014200083B78E7F02C083B7816083BF83B78D7F10
:1014300083BF83B7846083BF6230B9F0633018F430
:101440006130E1F505C0633009F16430B9F525C0BC
:1014500083B78F7B83BF83B7877F83BF89B7816063
:1014600089BF8FB780688FBF089583B7806483BFBB
:1014700083B7877F83BF81E063E041E00E94450B33
:1014800083B78F7E83BF83B7806205C083B78F7BAE
:1014900083BF83B7886083BF089583B7806483BFA9
:1014A00083B7886083BF81E063E041E00E94450B21
:1014B00083B78F7E83BF83B7806283BF0895982FE1
:1014C0008FB780688FBF8BB780648BBF913051F02E
:1014D000913028F0923061F09330B9F410C085B7A4
:1014E0008E7F02C085B7816085BF85B78D7F05C0BF
:1014F00085B78E7F85BF85B7826085BF089585B724
:10150000816085BF85B7826085BF0895982F8FB7AA
:1015100080688FBF8BB780688BBF913051F091305E
:1015200028F0923061F09330B9F410C085B78B7F0A
:1015300002C085B7846085BF85B7877F05C085B742
:101540008B7F85BF85B7886085BF089585B7846028
:1015500085BF85B7886085BF0895982F8FB780684D
:101560008FBF8BB780628BBF923019F0933041F4FC
:1015700004C084B78E7F84BF089584B7816084BF20
:10158000089590938901809388010895909385012F
:101590008093840108959093870180938601089534
:1015A0001F920F920FB60F9211242F933F934F93D8
:1015B0005F936F937F938F939F93AF93BF93EF93BB
:1015C000FF93E0918801F09189010995FF91EF91D6
:1015D000BF91AF919F918F917F916F915F914F914B
:1015E0003F912F910F900FBE0F901F9018951F9253
:1015F0000F920FB60F9211242F933F934F935F9347
:101600006F937F938F939F93AF93BF93EF93FF93CA
:10161000E0918401F09185010995FF91EF91BF91CF
:10162000AF919F918F917F916F915F914F913F917A
:101630002F910F900FBE0F901F9018951F920F9231
:101640000FB60F9211242F933F934F935F936F9395
:101650007F938F939F93AF93BF93EF93FF93E0910B
:101660008601F09187010995FF91EF91BF91AF91AC
:101670009F918F917F916F915F914F913F912F91AA
:101680000F900FBE0F901F901895813029F1813077
:1016900038F0823009F43CC0833009F06EC053C08A
:1016A000442361F42AB381E090E002C0880F991FBF
:1016B0006A95E2F7809582238ABB0895413009F04C
:1016C0005CC02AB381E090E002C0880F991F6A9540
:1016D000E2F7282B2ABB0895442361F427B381E065
:1016E00090E002C0880F991F6A95E2F780958223E7
:1016F00087BB0895413009F040C027B381E090E0F6
:1017000002C0880F991F6A95E2F7282B27BB08951E
:10171000442361F424B381E090E002C0880F991F54
:101720006A95E2F78095822384BB0895413029F5BC
:1017300024B381E090E002C0880F991F6A95E2F718
:10174000282B24BB0895442361F421B381E090E069
:1017500002C0880F991F6A95E2F78095822381BBAA
:101760000895413051F421B381E090E002C0880F28
:10177000991F6A95E2F7282B21BB0895813029F142
:10178000813038F0823009F43CC0833009F06EC0FB
:1017900053C0442361F42BB381E090E002C0880F72
:1017A000991F6A95E2F7809582238BBB089541309B
:1017B00009F05CC02BB381E090E002C0880F991F54
:1017C0006A95E2F7282B2BBB0895442361F428B3D4
:1017D00081E090E002C0880F991F6A95E2F780953A
:1017E000822388BB0895413009F040C028B381E0CE
:1017F00090E002C0880F991F6A95E2F7282B28BB5A
:101800000895442361F425B381E090E002C0880F7D
:10181000991F6A95E2F78095822385BB0895413030
:1018200029F525B381E090E002C0880F991F6A95E1
:10183000E2F7282B25BB0895442361F422B381E00D
:1018400090E002C0880F991F6A95E2F78095822385
:1018500082BB0895413051F422B381E090E002C090
:10186000880F991F6A95E2F7282B22BB08958130D3
:1018700091F0813028F08230C9F0833061F521C0C9
:101880002BB381E090E002C0880F991F6A95E2F7C0
:1018900028272BBB089528B381E090E002C0880F71
:1018A000991F6A95E2F7282728BB089525B381E0A0
:1018B00090E002C0880F991F6A95E2F7282725BBA0
:1018C000089522B381E090E002C0880F991F6A95C5
:1018D000E2F7282722BB0895813049F0813028F0B3
:1018E000823039F0833041F516C029B303C026B3E6
:1018F00001C023B381E090E0062E02C0880F991F3B
:101900000A94E2F730E08223932302C095958795ED
:101910006A95E2F7089520B381E090E0062E02C0B8
:10192000880F991F0A94E2F730E08223932302C0C4
:10193000959587956A95E2F70895813049F0813051
:1019400028F0823039F0833041F406C06ABB089534
:1019500067BB089564BB089561BB0895813049F069
:10196000813028F0823039F0833041F406C06BBBFF
:10197000089568BB089565BB089562BB08958130E2
:1019800059F0813028F0823059F0833081F40CC056
:101990008BB380958BBB089588B3809588BB0895E1
:1019A00085B3809585BB089582B3809582BB0895E9
:1019B000813049F0813028F0823039F0833041F4B1
:1019C00006C089B3089586B3089583B3089580B39C
:1019D0000895613039F0613018F0623041F405C08B
:1019E0003E9801C03E9A3F9802C03E9A3F9A80318D
:1019F000C9F0813138F4843079F0883089F0823050
:101A0000D9F407C0803499F0803899F08032A1F47D
:101A10000BC0309A319802C03098319A32980CC07D
:101A2000309AFBCF309801C0309A319804C030987A
:101A300001C0309A319A329A8FB780688FBF339A3B
:101A4000379A08958330C1F0843028F4813071F0E2
:101A5000823080F409C08530A1F0853080F0863076
:101A600099F08730B1F412C0389801C0389A39988B
:101A70003A980FC0389801C0389A399AF9CF3898F7
:101A800001C0389A399804C0389801C0389A399AF8
:101A90003A9A369A089524B135B1C9010895349B14
:101AA000FECF349A24B135B1C901089590938B01CA
:101AB00080938A0108951F920F920FB60F921124FE
:101AC0002F933F934F935F936F937F938F939F9346
:101AD000AF93BF93EF93FF93E0918A01F0918B0155
:101AE0000995FF91EF91BF91AF919F918F917F9158
:101AF0006F915F914F913F912F910F900FBE0F907B
:101B00001F9018959FBB8EBB6DBBE29AE19AE1993D
:101B1000FECF08959FBB8EBBE09A8DB308950895C4
:101B200080E00E94220D0E944F0DA0E0B0E0BC01B9
:101B3000CD0128E833E140E050E00E94E10D2FEFB5
:101B400033E040E050E00E94000ECA01B9012AE0F3
:101B500030E040E050E00E94000E822F08950E9485
:101B6000370C089540E00E94BE0B089541E00E94AA
:101B7000BE0B089541E00E94450B08951F9383E03A
:101B800067E00E94BA0D80E461E00E94E90C0E94C7
:101B90008F0D10E001C011E00E94900D893260F0BD
:101BA00083E067E00E94B60D1123A9F780E090E082
:101BB00060E50E94820DEFCF83E067E00E94B20DE6
:101BC000EBCF629FD001739FF001829FE00DF11D6A
:101BD000649FE00DF11D929FF00D839FF00D749FA7
:101BE000F00D659FF00D9927729FB00DE11DF91F53
:101BF000639FB00DE11DF91FBD01CF0111240895B0
:101C0000A1E21A2EAA1BBB1BFD010DC0AA1FBB1F00
:101C1000EE1FFF1FA217B307E407F50720F0A21B72
:101C2000B30BE40BF50B661F771F881F991F1A94DF
:101C300069F760957095809590959B01AC01BD0109
:101C4000CF0108952F923F924F925F926F927F92B1
:101C50008F929F92AF92BF92CF92DF92EF92FF92BC
:101C60000F931F93CF93DF93CDB7DEB7CA1BDB0B68
:101C70000FB6F894DEBF0FBECDBF09942A8839880D
:101C800048885F846E847D848C849B84AA84B98414
:101C9000C884DF80EE80FD800C811B81AA81B98120
:101CA000CE0FD11D0FB6F894DEBF0FBECDBFED0134
:061CB0000895F894FFCF37
:101CB600000000000000000000010202030303030D
:101CC60004040404040404040505050505050505C6
:101CD60005050505050505050606060606060606A6
:101CE600060606060606060606060606060606068E
:101CF6000606060606060606070707070707070776
:101D0600070707070707070707070707070707075D
:101D1600070707070707070707070707070707074D
:101D2600070707070707070707070707070707073D
:101D36000707070707070707080808080808080825
:101D4600080808080808080808080808080808080D
:101D560008080808080808080808080808080808FD
:101D660008080808080808080808080808080808ED
:101D760008080808080808080808080808080808DD
:101D860008080808080808080808080808080808CD
:101D960008080808080808080808080808080808BD
:101DA60008080808080808080808080808080808AD
:081DB6000808080808080808E5
:00000001FF
