:100000000C942A000C94730B0C949A0B0C94C10B57
:100010000C9447000C94BF080C9447000C944700C4
:100020000C9447000C9447000C9447000C94320A3F
:100030000C9447000C9447000C9447000C94F6076E
:100040000C94FE0D0C9447000C9447000C94470050
:100050000C94470011241FBECFE5D8E0DEBFCDBF12
:1000600011E0A0E6B0E0E0E6FFE102C005900D92ED
:10007000A03DB107D9F711E0A0EDB1E001C01D929C
:10008000AE3FB107E1F70E94F30E0C94AE0F0C9453
:100090000000EF92FF920F931F937B018C0120E0F1
:1000A00030E040E05FE40E94550488238CF0C801F2
:1000B000B70120E030E040E05FE40E94C1010E940F
:1000C000B5049B01AC01205030404040504806C070
:1000D000C801B7010E94B5049B01AC01B901CA0176
:1000E0001F910F91FF90EF900895A0E0B0E0EBE733
:1000F000F0E00C94770FDC012B01FA019C91923017
:1001000008F439C1EB018881823008F433C194309E
:1001100069F4843009F02FC111969C91119789815F
:10012000981709F428C1A7ECB0E025C1843009F480
:1001300021C18230A9F4923009F01DC19A01AD01AC
:1001400088E0EA010990AE01E90109929E0181501F
:10015000C1F7E201898111969C918923818308C1AD
:10016000923009F407C112962D903C901397EB0141
:100170008A819B811496AD90BD90CD90DC901797AD
:10018000EC80FD800E811F819101281B390BB90184
:1001900037FF04C066277727621B730B6032710537
:1001A0000CF061C0121613066CF537014801062EDB
:1001B00004C096948794779467940A94D2F721E0C8
:1001C00030E040E050E004C0220F331F441F551FB1
:1001D0006A95D2F721503040404050402E213F21B7
:1001E00040235123211531054105510521F021E01E
:1001F00030E040E050E079018A01E628F72808293C
:1002000019293CC0232BD1F1260E371E350146019A
:10021000062E04C096948794779467940A94D2F734
:1002200021E030E040E050E004C0220F331F441FC3
:10023000551F6A95D2F721503040404050402A2146
:100240003B214C215D21211531054105510521F04E
:1002500021E030E040E050E059016A01A628B728CB
:10026000C828D9280BC0821593052CF01C01AA249C
:10027000BB24650103C0EE24FF24870111969C91E5
:10028000D20111968C91981709F445C0992339F041
:10029000A80197012A193B094C095D0906C0A6016E
:1002A00095012E193F09400B510B57FD08C01182D3
:1002B0003382228224833583468357831DC081E0A5
:1002C00081833382228288279927DC01821B930B4A
:1002D000A40BB50B84839583A683B7830DC0220F2F
:1002E000331F441F551F24833583468357838281E0
:1002F000938101979383828324813581468157813D
:10030000DA01C9010197A109B1098F5F9F4FAF4F72
:10031000BF4328F30BC0918333822282EA0CFB1C7B
:100320000C1D1D1DE482F5820683178383E0808304
:10033000248135814681578157FF1AC0C901AA27F8
:1003400097FDA095BA2F81709070A070B0705695EF
:10035000479537952795822B932BA42BB52B848318
:100360009583A683B7838281938101969383828349
:10037000DF0101C0D201CD01CDB7DEB7E2E10C94BF
:10038000930FA0E2B0E0E7ECF1E00C94830F6983F7
:100390007A838B839C832D833E834F835887E9E048
:1003A000EE2EF12CEC0EFD1ECE010196B7010E943F
:1003B000A6068E010F5E1F4FCE010596B8010E9462
:1003C000A6068A8991E089278A8BC701B801AE0108
:1003D000475E5F4F0E9475000E94D105A096E6E03F
:1003E0000C949F0FA0E2B0E0E8EFF1E00C94830FD3
:1003F00069837A838B839C832D833E834F835887C5
:10040000F9E0EF2EF12CEC0EFD1ECE010196B701A6
:100410000E94A6068E010F5E1F4FCE010596B80101
:100420000E94A606C701B801AE01475E5F4F0E9459
:1004300075000E94D105A096E6E00C949F0FA0E203
:10044000B0E0E5E2F2E00C94770F69837A838B8366
:100450009C832D833E834F835887CE010196BE0136
:10046000675F7F4F0E94A606CE010596BE016F5EB4
:100470007F4F0E94A6069985923088F08989823044
:10048000C8F0943019F4823051F404C0843029F457
:10049000923081F487EC90E0C6C0923049F420E0BD
:1004A0009A858A89981321E02A87CE010996BBC0D4
:1004B000823049F420E09A858A89981321E02A8BBA
:1004C000CE014196B0C02D843E844F8458886D88FB
:1004D0007E888F88988CEE24FF248701AA24BB2471
:1004E000650140E050E060E070E0E0E0F0E0C10174
:1004F00081709070892BE9F0E60CF71C081D191D1E
:100500009A01AB012A0D3B1D4C1D5D1D80E090E062
:10051000A0E0B0E0E614F7040805190520F481E036
:1005200090E0A0E0B0E0BA01A901480F591F6A1F8E
:100530007B1FAA0CBB1CCC1CDD1C97FE08C081E0F5
:1005400090E0A0E0B0E0A82AB92ACA2ADB2A3196B6
:10055000E032F10549F0660C771C881C991C569412
:10056000479437942794C3CFFA85EA892B893C892D
:100570008B859C85280F391F2E5F3F4F17C0CA01FE
:1005800081709070892B61F016950795F794E79428
:1005900080E090E0A0E0B0E8E82AF92A0A2B1B2BC3
:1005A00076956795579547952F5F3F4F77FDE7CF36
:1005B0000CC0440F551F661F771F17FD4160EE0CDE
:1005C000FF1C001F111F21503040403090E05907A0
:1005D00090E0690790E4790760F32B8F3C8FDB0193
:1005E000CA018F779070A070B07080349105A1051A
:1005F000B10561F447FD0AC0E114F10401051105DC
:1006000029F0405C5F4F6F4F7F4F40781A8EFE1786
:1006100011F081E08A8F4D8F5E8F6F8F78A383E01A
:10062000898FCE0149960E94D105A096E2E10C94F3
:10063000930FA8E1B0E0EFE1F3E00C947F0F698342
:100640007A838B839C832D833E834F835887B9E0C5
:10065000EB2EF12CEC0EFD1ECE010196B7010E948F
:10066000A6068E010F5E1F4FCE010596B8010E94AF
:10067000A6062985223008F47EC03989323010F46C
:10068000B8017CC08A859A8989278A87243011F02D
:10069000223031F4231709F06EC067EC70E06EC0B1
:1006A000343039F41D861E861F86188A1C861B86E8
:1006B00004C0323021F484E08987B7015FC02B8504
:1006C0003C858B899C89281B390B3C872B87ED84C3
:1006D000FE840F851889AD88BE88CF88D88CEA142F
:1006E000FB040C051D0540F4EE0CFF1C001F111F40
:1006F000215030403C872B8720E030E040E050E044
:1007000080E090E0A0E0B0E460E070E0EA14FB0478
:100710000C051D0540F0282B392B4A2B5B2BEA18C2
:10072000FB080C091D09B695A79597958795EE0CC2
:10073000FF1C001F111F6F5F7F4F6F31710531F775
:10074000DA01C9018F779070A070B0708034910584
:10075000A105B10561F427FD0AC0E114F10401050A
:10076000110529F0205C3F4F4F4F5F4F20782D87B8
:100770003E874F87588BBE01675F7F4FCB010E943A
:10078000D1056896EAE00C949B0FA8E1B0E0EBEC91
:10079000F3E00C94830F69837A838B839C832D838E
:1007A0003E834F83588789E0E82EF12CEC0EFD1E26
:1007B000CE010196B7010E94A6068E010F5E1F4F63
:1007C000CE010596B8010E94A6068985823040F0C8
:1007D0008989823028F0C701B8010E941E0701C034
:1007E00081E06896E6E00C949F0FA8E1B0E0EBEFA3
:1007F000F3E00C94830F69837A838B839C832D832E
:100800003E834F83588789E0E82EF12CEC0EFD1EC5
:10081000CE010196B7010E94A6068E010F5E1F4F02
:10082000CE010596B8010E94A6068985823040F067
:100830008989823028F0C701B8010E941E0701C0D3
:1008400081E06896E6E00C949F0FA8E1B0E0EBE24F
:10085000F4E00C94830F69837A838B839C832D83CC
:100860003E834F83588789E0E82EF12CEC0EFD1E65
:10087000CE010196B7010E94A6068E010F5E1F4FA2
:10088000CE010596B8010E94A6068985823040F007
:100890008989823028F0C701B8010E941E0701C073
:1008A0008FEF6896E6E00C949F0FA8E1B0E0EBE5CF
:1008B000F4E00C94830F69837A838B839C832D836C
:1008C0003E834F83588789E0E82EF12CEC0EFD1E05
:1008D000CE010196B7010E94A6068E010F5E1F4F42
:1008E000CE010596B8010E94A6068985823040F0A7
:1008F0008989823028F0C701B8010E941E0701C013
:100900008FEF6896E6E00C949F0FA8E1B0E0EBE86B
:10091000F4E00C94830F69837A838B839C832D830B
:100920003E834F83588789E0E82EF12CEC0EFD1EA4
:10093000CE010196B7010E94A6068E010F5E1F4FE1
:10094000CE010596B8010E94A6068985823040F046
:100950008989823028F0C701B8010E941E0701C0B2
:1009600081E06896E6E00C949F0FACE0B0E0EBEB22
:10097000F4E00C94870F69837A838B839C83CE0188
:100980000196BE016B5F7F4F0E94A6068D8182306B
:1009900061F1823050F1843021F48E81882351F14D
:1009A0002EC02F81388537FD20C06E812F31310553
:1009B0001CF06623F9F023C08EE190E0821B930BBC
:1009C00029853A854B855C8504C0569547953795B2
:1009D00027958A95D2F76623B1F0509540953095CA
:1009E00021953F4F4F4F5F4F0EC020E030E040E079
:1009F00050E009C02FEF3FEF4FEF5FE704C020E06A
:100A000030E040E050E8B901CA012C96E2E00C94D5
:100A1000A30FA8E0B0E0EFE0F5E00C947F0F7B01BE
:100A20008C01611571058105910519F482E08983B6
:100A300060C083E089838EE1C82ED12CDC82CB821A
:100A4000ED82FE820F831887C801B7010E948205DC
:100A5000FC013197F7FF3BC0222733272E1B3F0BAA
:100A600057016801022E04C0D694C794B794A79486
:100A70000A94D2F740E050E060E070E081E090E05E
:100A8000A0E0B0E004C0880F991FAA1FBB1F2A95E1
:100A9000D2F70197A109B1098E219F21A023B1238B
:100AA0000097A105B10521F041E050E060E070E061
:100AB0004A295B296C297D294D835E836F83788762
:100AC0008EE190E08E1B9F0B9C838B8312C030972E
:100AD00081F00E2E04C0EE0CFF1C001F111F0A94A3
:100AE000D2F7ED82FE820F831887CE1ADF0ADC82EE
:100AF000CB821A82CE0101960E94D1052896EAE0A7
:100B00000C949B0FEF92FF920F931F937B018C012C
:100B100080E0E81680E0F80681E0080780E018072A
:100B200088F48FEFE816F1040105110531F028F083
:100B300088E090E0A0E0B0E017C080E090E0A0E0A6
:100B4000B0E012C080E0E81680E0F80680E0080718
:100B500081E0180728F088E190E0A0E0B0E004C050
:100B600080E190E0A0E0B0E020E230E040E050E042
:100B7000281B390B4A0B5B0B04C016950795F7949D
:100B8000E7948A95D2F7F701E153FF4F8081281B44
:100B9000310941095109C9011F910F91FF90EF904F
:100BA0000895DF92EF92FF920F931F93FC01E48070
:100BB000F58006811781D1808081823048F480E001
:100BC00090E0A0E1B0E0E82AF92A0A2B1B2BA5C08F
:100BD000843009F49FC0823021F4EE24FF24870181
:100BE00005C0E114F1040105110519F4E0E0F0E09D
:100BF00096C0628173819FEF623879070CF05BC009
:100C000022E83FEF261B370B2A3131052CF020E07C
:100C100030E040E050E02AC0B801A701022E04C035
:100C200076956795579547950A94D2F781E090E0BD
:100C3000A0E0B0E004C0880F991FAA1FBB1F2A952F
:100C4000D2F70197A109B1098E219F21A023B123D9
:100C50000097A105B10521F081E090E0A0E0B0E0AF
:100C60009A01AB01282B392B4A2B5B2BDA01C901E6
:100C70008F779070A070B07080349105A105B10598
:100C800039F427FF09C0205C3F4F4F4F5F4F04C02E
:100C9000215C3F4F4F4F5F4FE0E0F0E02030A0E09D
:100CA0003A07A0E04A07A0E45A0710F0E1E0F0E0BC
:100CB00079018A0127C06038710564F5FB01E158AC
:100CC000FF4FD801C7018F779070A070B07080344B
:100CD0009105A105B10539F4E7FE0DC080E490E06F
:100CE000A0E0B0E004C08FE390E0A0E0B0E0E80E48
:100CF000F91E0A1F1B1F17FF05C016950795F794CD
:100D0000E794319687E016950795F794E7948A95CE
:100D1000D1F705C0EE24FF248701EFEFF0E06E2F3E
:100D2000679566276795902F9F77D794DD24D79492
:100D30008E2F8695492F462B582F5D29B701CA0162
:100D40001F910F91FF90EF90DF900895FC01DB0160
:100D5000408151812281622F6F7770E0221F22270C
:100D6000221F9381892F880F822B282F30E0991F13
:100D70009927991F11969C93119721153105A9F573
:100D8000411551056105710511F482E037C082E813
:100D90009FEF13969C938E9312979A01AB0167E095
:100DA000220F331F441F551F6A95D1F783E08C93A0
:100DB0000DC0220F331F441F551F12968D919C9119
:100DC0001397019713969C938E931297203080E08F
:100DD000380780E0480780E4580758F314962D93AD
:100DE0003D934D935C93179708952F3F310579F408
:100DF000411551056105710519F484E08C9308953E
:100E000064FF03C081E08C9312C01C9210C02F5766
:100E1000304013963C932E93129783E08C9387E097
:100E2000440F551F661F771F8A95D1F7706414967B
:100E30004D935D936D937C93179708951F93DC01F9
:100E4000FB019C91923008F447C08081823008F405
:100E500043C0943051F411961C91843099F58181EE
:100E6000682F70E0611B71093FC0843021F092301F
:100E700031F48230B9F18181882389F12DC0119636
:100E80001C9111978230F1F081811817D9F41296D4
:100E90002D913C911397828193818217930794F04F
:100EA00028173907BCF014968D919D910D90BC9137
:100EB000A02D2481358146815781281739074A079B
:100EC0005B0718F4112341F00AC082179307A407A7
:100ED000B50740F4112319F061E070E005C06FEF31
:100EE0007FEF02C060E070E0CB011F910895FF9298
:100EF0000F931F938B019C01F42E84E0000F111FB0
:100F0000221F331F8A95D1F760E072E18AE790E0F3
:100F1000A90198010E94550F2150304029B980B590
:100F20008F7780BD30BD549A539A80B5806880BD5C
:100F300086E0F81681F08F1520F085E0F816D9F4D8
:100F400007C087E0F81669F088E0F816A1F40CC035
:100F500080B58D7F02C080B5826080BD80B58B7FFB
:100F600008C080B58D7F02C080B5826080BD80B52D
:100F7000846080BD52981F910F91FF9008955D9BF2
:100F8000FECF8CB95E9BFECF08951F931091D001C8
:100F9000E091DD01F091DE01E10FF11D80811F5F25
:100FA0001093D0010E94BF07E091DD01F091DE01B6
:100FB000E10FF11D8081882319F456981092D00119
:100FC0001F9108959C015699FECF8FB780688FBFFF
:100FD000569A3093DE012093DD010E94C5070895E3
:100FE0005F9902C080E008958CB108951F920F921E
:100FF0000FB60F9211242F933F934F935F936F93EC
:101000007F938F939F93AF93BF93EF93FF930E9430
:10101000C507FF91EF91BF91AF919F918F917F9104
:101020006F915F914F913F912F910F900FBE0F9055
:101030001F901895CF92DF92EF92FF920F931F931C
:101040006A010E9409057B018C016091DF017091AA
:10105000E0018091E1019091E2010E94090520E008
:1010600030E040E853E40E941F0220E030E040E01E
:101070005EE30E941F029B01AC01C801B7010E9400
:1010800019037B018C01D092E401C092E30120E0BE
:1010900030E040E85FE30E94850488232CF481E07F
:1010A00090E0A0E0B0E04BC0C801B70120E030E024
:1010B00040E85FE30E94C503882369F481E090E083
:1010C000A0E0B0E08093E5019093E601A093E701F2
:1010D000B093E8014DC0C801B70120E030E040E81E
:1010E0005FE30E94250418160CF042C0C801B70146
:1010F0000E9449006093E5017093E6018093E70147
:101100009093E8010E9409059B01AC01C801B70159
:101110000E94C1017B018C0120E030E040E050E002
:101120000E94F503882321F18091E5019091E60169
:10113000A091E701B091E8010196A11DB11D809336
:10114000E5019093E601A093E701B093E801C8019F
:10115000B70120E030E040E853EC0E941F0220E09D
:1011600030E040E853E40E94F2010E94490064BD6F
:101170001F910F91FF90EF90DF90CF9008951F92F5
:101180000F920FB60F9211242F933F934F935F93BB
:101190006F937F938F939F93AF93BF93EF93FF933F
:1011A0008091D1019091D201A091D301B091D4014D
:1011B0000196A11DB11D8093D1019093D201A093FE
:1011C000D301B093D4012091E5013091E601409123
:1011D000E7015091E80182179307A407B50769F466
:1011E000E091E301F091E40109951092D101109290
:1011F000D2011092D3011092D401FF91EF91BF91CF
:10120000AF919F918F917F916F915F914F913F919E
:101210002F910F900FBE0F901F9018959C01A0E08A
:10122000B0E08093DF019093E001A093E101B093DF
:10123000E2012034310509F12134310538F421303F
:10124000310561F02830310551F50EC081E02030C4
:101250003807C9F02050344011F518C085B58160B9
:1012600085BD85B58D7F05C085B58E7F85BD85B56E
:10127000826085BD85B58B7F11C085B58E7F85BDAC
:1012800085B58D7F08C085B58E7F02C085B581602C
:1012900085BD85B5826085BD85B5846085BD6230BC
:1012A000B9F0633018F4613089F505C06330B1F0EE
:1012B000643061F51AC085B58F7B85BD85B5877FA4
:1012C00085BD89B7806489BF8FB780688FBF089557
:1012D00085B5806485BD85B5877F05C085B58F7B65
:1012E00085BD85B5886085BD089585B5806485BD5B
:1012F00085B5886085BD81E063E041E00E94E80B30
:1013000085B58F7E85BD85B5806285BD08958F9238
:101310009F92AF92BF92CF92DF92EF92FF920F9384
:101320001F936A010E9409057B018C016091EF0106
:101330007091F0018091F1019091F2010E940905F4
:1013400020E030E040E853E40E941F0220E030E05B
:1013500040E05EE30E941F029B01AC01C801B7019F
:101360000E9419034B015C01D092EA01C092E9018D
:1013700020E030E040E85FE30E94850488232CF4FD
:1013800081E090E0A0E0B0E047C0C501B40120E0FA
:1013900030E040E85FE30E94C503882369F481E000
:1013A00090E0A0E0B0E08093EB019093EC01A0937B
:1013B000ED01B093EE0149C0C501B40120E030E079
:1013C00040E85FE30E94250418160CF03EC0C501FA
:1013D000B4010E9449007B018C016093EB01709382
:1013E000EC018093ED019093EE010E9409059B01B1
:1013F000AC01C501B4010E94C1014B015C0120E0B8
:1014000030E040E050E00E94F5038823F1F0D8017D
:10141000C7010196A11DB11D8093EB019093EC01D2
:10142000A093ED01B093EE01C501B40120E030E0DE
:1014300040E853EC0E941F0220E030E040E853E413
:101440000E94F2010E94490062BF1F910F91FF901C
:10145000EF90DF90CF90BF90AF909F908F900895C6
:101460008CBF08951F920F920FB60F9211242F93E5
:101470003F934F935F936F937F938F939F93AF931C
:10148000BF93EF93FF938091D5019091D601A091E6
:10149000D701B091D8010196A11DB11D8093D5014E
:1014A0009093D601A093D701B093D8012091EB017E
:1014B0003091EC014091ED015091EE0182179307BC
:1014C000A407B50769F4E091E901F091EA010995F3
:1014D0001092D5011092D6011092D7011092D80126
:1014E000FF91EF91BF91AF919F918F917F916F91FC
:1014F0005F914F913F912F910F900FBE0F901F90D2
:1015000018959C01A0E0B0E08093EF019093F0016A
:10151000A093F101B093F2012034310509F1213497
:10152000310538F42130310561F02830310539F5C5
:101530000EC081E020303807B1F020503440F9F47B
:1015400015C083B7816083BF83B78D7F05C083B724
:101550008E7F83BF83B7826083BF83B78B7F0EC0CC
:1015600083B78160F6CF83B78E7F02C083B7816077
:1015700083BF83B78D7F83BF83B7846083BF6230AF
:10158000B9F0633018F46130E1F505C0633009F15A
:101590006430B9F525C083B78F7B83BF83B7877F5E
:1015A00083BF89B7816089BF8FB780688FBF089577
:1015B00083B7806483BF83B7877F83BF81E063E0A5
:1015C00041E00E94E80B83B78F7E83BF83B78062C0
:1015D00005C083B78F7B83BF83B7886083BF0895BF
:1015E00083B7806483BF83B7886083BF81E063E093
:1015F00041E00E94E80B83B78F7E83BF83B7806290
:1016000083BF0895982F8FB780688FBF8BB7806492
:101610008BBF913051F0913028F0923061F09330CF
:10162000B9F410C085B78E7F02C085B7816085BFD1
:1016300085B78D7F05C085B78E7F85BF85B78260F2
:1016400085BF089585B7816085BF85B7826085BFF6
:101650000895982F8FB780688FBF8BB780688BBF36
:10166000913051F0913028F0923061F09330B9F41C
:1016700010C085B78B7F02C085B7846085BF85B7F2
:10168000877F05C085B78B7F85BF85B7886085BF9D
:10169000089585B7846085BF85B7886085BF089544
:1016A000982F8FB780688FBF8BB780628BBF9230C7
:1016B00019F0933041F404C084B78E7F84BF08953D
:1016C00084B7816084BF08959093F8018093F701F7
:1016D00008959093F4018093F30108959093F60197
:1016E0008093F50108951F920F920FB60F92112467
:1016F0002F933F934F935F936F937F938F939F931A
:10170000AF93BF93EF93FF93E091F701F091F8014E
:101710000995FF91EF91BF91AF919F918F917F912B
:101720006F915F914F913F912F910F900FBE0F904E
:101730001F9018951F920F920FB60F9211242F939E
:101740003F934F935F936F937F938F939F93AF9349
:10175000BF93EF93FF93E091F301F091F4010995AA
:10176000FF91EF91BF91AF919F918F917F916F9179
:101770005F914F913F912F910F900FBE0F901F904F
:1017800018951F920F920FB60F9211242F933F932B
:101790004F935F936F937F938F939F93AF93BF9379
:1017A000EF93FF93E091F501F091F6010995FF9118
:1017B000EF91BF91AF919F918F917F916F915F91C9
:1017C0004F913F912F910F900FBE0F901F90189542
:1017D000813029F1813038F0823009F43CC0833007
:1017E00009F06EC053C0442361F42AB381E090E055
:1017F00002C0880F991F6A95E2F7809582238ABB01
:101800000895413009F05CC02AB381E090E002C045
:10181000880F991F6A95E2F7282B2ABB0895442365
:1018200061F427B381E090E002C0880F991F6A95A8
:10183000E2F78095822387BB0895413009F040C0CC
:1018400027B381E090E002C0880F991F6A95E2F704
:10185000282B27BB0895442361F424B381E090E052
:1018600002C0880F991F6A95E2F78095822384BB96
:101870000895413029F524B381E090E002C0880F3B
:10188000991F6A95E2F7282B24BB0895442361F43D
:1018900021B381E090E002C0880F991F6A95E2F7BA
:1018A0008095822381BB0895413051F421B381E0BA
:1018B00090E002C0880F991F6A95E2F7282B21BBA0
:1018C0000895813029F1813038F0823009F43CC02C
:1018D000833009F06EC053C0442361F42BB381E020
:1018E00090E002C0880F991F6A95E2F780958223E5
:1018F0008BBB0895413009F05CC02BB381E090E0D0
:1019000002C0880F991F6A95E2F7282B2BBB089518
:10191000442361F428B381E090E002C0880F991F4E
:101920006A95E2F78095822388BB0895413009F0DB
:1019300040C028B381E090E002C0880F991F6A95EB
:10194000E2F7282B28BB0895442361F425B381E0F6
:1019500090E002C0880F991F6A95E2F78095822374
:1019600085BB0895413029F525B381E090E002C0A0
:10197000880F991F6A95E2F7282B25BB0895442309
:1019800061F422B381E090E002C0880F991F6A954C
:10199000E2F78095822382BB0895413051F422B34F
:1019A00081E090E002C0880F991F6A95E2F7282B2A
:1019B00022BB0895813091F0813028F08230C9F047
:1019C000833061F521C02BB381E090E002C0880F25
:1019D000991F6A95E2F728272BBB089528B381E069
:1019E00090E002C0880F991F6A95E2F7282728BB6C
:1019F000089525B381E090E002C0880F991F6A9591
:101A0000E2F7282725BB089522B381E090E002C0C9
:101A1000880F991F6A95E2F7282722BB0895813025
:101A200049F0813028F0823039F0833041F516C01A
:101A300029B303C026B301C023B381E090E0062E92
:101A400002C0880F991F0A94E2F730E082239323A3
:101A500002C0959587956A95E2F7089520B381E0D5
:101A600090E0062E02C0880F991F0A94E2F730E03A
:101A70008223932302C0959587956A95E2F708958E
:101A8000813049F0813028F0823039F0833041F4E0
:101A900006C06ABB089567BB089564BB089561BB27
:101AA0000895813049F0813028F0823039F0833058
:101AB00041F406C06BBB089568BB089565BB0895EB
:101AC00062BB0895813059F0813028F0823059F09E
:101AD000833081F40CC08BB380958BBB089588B3A1
:101AE000809588BB089585B3809585BB089582B3A2
:101AF000809582BB0895813049F0813028F0823092
:101B000039F0833041F406C089B3089586B308954F
:101B100083B3089580B30895613039F0613018F0CF
:101B2000623041F405C03E9801C03E9A3F9802C021
:101B30003E9A3F9A8031C9F0813138F4843079F08F
:101B4000883089F08230D9F407C0803499F0803829
:101B500099F08032A1F40BC0309A319802C03098CD
:101B6000319A32980CC0309AFBCF309801C0309A2D
:101B7000319804C0309801C0309A319A329A8FB7A8
:101B800080688FBF339A379A08958330C1F08430CC
:101B900028F4813071F0823080F409C08530A1F0E2
:101BA000853080F0863099F08730B1F412C03898D3
:101BB00001C0389A39983A980FC0389801C0389ABD
:101BC000399AF9CF389801C0389A399804C03898B2
:101BD00001C0389A399A3A9A369A089524B135B1A3
:101BE000C9010895349BFECF349A24B135B1C9019F
:101BF00008959093FA018093F90108951F920F922E
:101C00000FB60F9211242F933F934F935F936F93CF
:101C10007F938F939F93AF93BF93EF93FF93E09145
:101C2000F901F091FA010995FF91EF91BF91AF9100
:101C30009F918F917F916F915F914F913F912F91E4
:101C40000F900FBE0F901F9018959FBB8EBB6DBB62
:101C5000E29AE19AE199FECF08959FBB8EBBE09A8C
:101C60008DB30895089581E00E94C50D0E94F20D84
:101C70000895089580E00E94C50D0E94F20DA0E035
:101C8000B0E0BC01CD0128E833E140E050E00E9423
:101C9000360F2FEF33E040E050E00E94550FCA01AD
:101CA000B9012AE030E040E050E00E94550F822F59
:101CB00008950E94DA0C089540E00E94610C089596
:101CC00041E00E94610C089541E00E94E80B0895F4
:101CD000FF920F931F9381E090E00E942D0E182F2A
:101CE00082E090E00E942D0E082F80E090E00E949C
:101CF0002D0EF82E113521F480E690E00E94E207C7
:101D0000023521F480E890E00E94E20780E5F816B1
:101D100021F48FE990E00E94E2071F910F91FF905C
:101D200008950E94F007282F8823D9F09091DC01B4
:101D3000E091FB01F091FC01E90FF11D8081281772
:101D400021F49F5F9093DC0102C01092DC0190911E
:101D5000DC018091FD01981721F41092DC010E94B2
:101D6000680E0895FF920F931F938C01F62ECA01FF
:101D7000B90148E00E9477071093FC010093FB0132
:101D8000F092FD011F910F91FF900895813589F028
:101D90008235E1F0803531F58091D901813011F142
:101DA00080E090E060E50E94250E81E08093D901FB
:101DB00008958091DB018130A9F081E090E061E538
:101DC0000E94250E81E08093DB0108958091DA0165
:101DD000813041F082E090E062E50E94250E81E0D2
:101DE0008093DA0108951F93CF93DF9383E067E038
:101DF0000E94640E80E461E00E948C0D0E94390E06
:101E00000E94320E83EC90E063E020E835E240E08F
:101E100050E00E94B20E0E943A0E182F0E94330E1C
:101E2000EC0183E0C438D80710F480E004C081E5F9
:101E30000E94C60E81E0C536D10520F482E50E94DD
:101E4000C60E81E0193220F080E50E94C60E02C065
:101E5000813029F483E067E00E94600E04C083E0D3
:101E600067E00E945C0E0E94910ED5CF629FD00168
:101E7000739FF001829FE00DF11D649FE00DF11D45
:101E8000929FF00D839FF00D749FF00D659FF00DF4
:101E90009927729FB00DE11DF91F639FB00DE11DE1
:101EA000F91FBD01CF0111240895A1E21A2EAA1B2A
:101EB000BB1BFD010DC0AA1FBB1FEE1FFF1FA217FA
:101EC000B307E407F50720F0A21BB30BE40BF50BF7
:101ED000661F771F881F991F1A9469F76095709580
:101EE000809590959B01AC01BD01CF0108952F9283
:101EF0003F924F925F926F927F928F929F92AF929A
:101F0000BF92CF92DF92EF92FF920F931F93CF93E6
:101F1000DF93CDB7DEB7CA1BDB0B0FB6F894DEBF7D
:101F20000FBECDBF09942A88398848885F846E84A3
:101F30007D848C849B84AA84B984C884DF80EE80ED
:101F4000FD800C811B81AA81B981CE0FD11D0FB6F6
:101F5000F894DEBF0FBECDBFED010895F894FFCF1A
:101F60004572726F7220636F646520307835313A44
:101F700020486967682043757272656E740D0A00A7
:101F80004572726F7220636F646520307835323A23
:101F9000204C6F772043757272656E740D0A004590
:101FA00072726F7220636F646520307835303A202A
:101FB000486967682054656D7065726174757265F3
:101FC0000D0A003132330000000000000000000064
:101FD00001020203030303040404040404040405CB
:101FE00005050505050505050505050505050506A0
:101FF0000606060606060606060606060606060681
:10200000060606060606060606060606060606076F
:102010000707070707070707070707070707070750
:102020000707070707070707070707070707070740
:102030000707070707070707070707070707070730
:10204000070707070707070707070707070707081F
:102050000808080808080808080808080808080800
:1020600008080808080808080808080808080808F0
:1020700008080808080808080808080808080808E0
:1020800008080808080808080808080808080808D0
:1020900008080808080808080808080808080808C0
:1020A00008080808080808080808080808080808B0
:1020B00008080808080808080808080808080808A0
:1020C0000808080808080808080808080808080098
:00000001FF
